{
  "address": "0x0165878A594ca255338adfa4d48449f69242Eb8F",
  "abi": [
    {
      "inputs": [
        {
          "internalType": "bytes32",
          "name": "_keyHash",
          "type": "bytes32"
        },
        {
          "internalType": "uint64",
          "name": "subscriptionId",
          "type": "uint64"
        },
        {
          "internalType": "address",
          "name": "_vrfCoordinator",
          "type": "address"
        },
        {
          "internalType": "address",
          "name": "_link",
          "type": "address"
        },
        {
          "internalType": "address",
          "name": "_lotteryData",
          "type": "address"
        }
      ],
      "stateMutability": "nonpayable",
      "type": "constructor"
    },
    {
      "inputs": [
        {
          "internalType": "address",
          "name": "have",
          "type": "address"
        },
        {
          "internalType": "address",
          "name": "want",
          "type": "address"
        }
      ],
      "name": "OnlyCoordinatorCanFulfill",
      "type": "error"
    },
    {
      "inputs": [],
      "name": "Raffle__TransferFailed",
      "type": "error"
    },
    {
      "inputs": [],
      "name": "alreadyEntered",
      "type": "error"
    },
    {
      "inputs": [],
      "name": "invalidFee",
      "type": "error"
    },
    {
      "inputs": [],
      "name": "invalidValue",
      "type": "error"
    },
    {
      "inputs": [],
      "name": "lotteryEnded",
      "type": "error"
    },
    {
      "inputs": [],
      "name": "lotteryFull",
      "type": "error"
    },
    {
      "inputs": [],
      "name": "lotteryNotActive",
      "type": "error"
    },
    {
      "inputs": [],
      "name": "onlyLotteryManagerAllowed",
      "type": "error"
    },
    {
      "inputs": [],
      "name": "onlyRaffleOwnerAllowed",
      "type": "error"
    },
    {
      "inputs": [],
      "name": "playersNotFound",
      "type": "error"
    },
    {
      "inputs": [],
      "name": "ticketCostNotCorrect",
      "type": "error"
    },
    {
      "anonymous": false,
      "inputs": [
        {
          "indexed": false,
          "internalType": "uint256",
          "name": "",
          "type": "uint256"
        },
        {
          "indexed": false,
          "internalType": "address",
          "name": "",
          "type": "address"
        }
      ],
      "name": "LotteryCreated",
      "type": "event"
    },
    {
      "anonymous": false,
      "inputs": [
        {
          "indexed": false,
          "internalType": "uint256",
          "name": "",
          "type": "uint256"
        },
        {
          "indexed": false,
          "internalType": "address",
          "name": "",
          "type": "address"
        },
        {
          "indexed": false,
          "internalType": "uint256",
          "name": "",
          "type": "uint256"
        }
      ],
      "name": "NewLotteryPlayer",
      "type": "event"
    },
    {
      "anonymous": false,
      "inputs": [
        {
          "indexed": false,
          "internalType": "uint256",
          "name": "",
          "type": "uint256"
        },
        {
          "indexed": false,
          "internalType": "uint256",
          "name": "",
          "type": "uint256"
        }
      ],
      "name": "RandomnessRequested",
      "type": "event"
    },
    {
      "anonymous": false,
      "inputs": [
        {
          "indexed": true,
          "internalType": "bytes32",
          "name": "role",
          "type": "bytes32"
        },
        {
          "indexed": true,
          "internalType": "bytes32",
          "name": "previousAdminRole",
          "type": "bytes32"
        },
        {
          "indexed": true,
          "internalType": "bytes32",
          "name": "newAdminRole",
          "type": "bytes32"
        }
      ],
      "name": "RoleAdminChanged",
      "type": "event"
    },
    {
      "anonymous": false,
      "inputs": [
        {
          "indexed": true,
          "internalType": "bytes32",
          "name": "role",
          "type": "bytes32"
        },
        {
          "indexed": true,
          "internalType": "address",
          "name": "account",
          "type": "address"
        },
        {
          "indexed": true,
          "internalType": "address",
          "name": "sender",
          "type": "address"
        }
      ],
      "name": "RoleGranted",
      "type": "event"
    },
    {
      "anonymous": false,
      "inputs": [
        {
          "indexed": true,
          "internalType": "bytes32",
          "name": "role",
          "type": "bytes32"
        },
        {
          "indexed": true,
          "internalType": "address",
          "name": "account",
          "type": "address"
        },
        {
          "indexed": true,
          "internalType": "address",
          "name": "sender",
          "type": "address"
        }
      ],
      "name": "RoleRevoked",
      "type": "event"
    },
    {
      "anonymous": false,
      "inputs": [
        {
          "indexed": false,
          "internalType": "uint256",
          "name": "",
          "type": "uint256"
        },
        {
          "indexed": false,
          "internalType": "uint256",
          "name": "",
          "type": "uint256"
        },
        {
          "indexed": false,
          "internalType": "address",
          "name": "",
          "type": "address"
        }
      ],
      "name": "WinnerDeclared",
      "type": "event"
    },
    {
      "inputs": [],
      "name": "DEFAULT_ADMIN_ROLE",
      "outputs": [
        {
          "internalType": "bytes32",
          "name": "",
          "type": "bytes32"
        }
      ],
      "stateMutability": "view",
      "type": "function"
    },
    {
      "inputs": [
        {
          "internalType": "uint256",
          "name": "_lotteryId",
          "type": "uint256"
        },
        {
          "internalType": "uint256",
          "name": "_count",
          "type": "uint256"
        }
      ],
      "name": "enterLottery",
      "outputs": [],
      "stateMutability": "payable",
      "type": "function"
    },
    {
      "inputs": [],
      "name": "getAllLotteryIds",
      "outputs": [
        {
          "internalType": "uint256[]",
          "name": "",
          "type": "uint256[]"
        }
      ],
      "stateMutability": "view",
      "type": "function"
    },
    {
      "inputs": [
        {
          "internalType": "uint256",
          "name": "_lotteryId",
          "type": "uint256"
        }
      ],
      "name": "getLotteryDetails",
      "outputs": [
        {
          "internalType": "address",
          "name": "",
          "type": "address"
        },
        {
          "internalType": "uint256",
          "name": "",
          "type": "uint256"
        },
        {
          "internalType": "uint256",
          "name": "",
          "type": "uint256"
        },
        {
          "internalType": "uint256",
          "name": "",
          "type": "uint256"
        },
        {
          "internalType": "address[]",
          "name": "",
          "type": "address[]"
        },
        {
          "internalType": "address",
          "name": "",
          "type": "address"
        },
        {
          "internalType": "bool",
          "name": "",
          "type": "bool"
        }
      ],
      "stateMutability": "view",
      "type": "function"
    },
    {
      "inputs": [
        {
          "internalType": "bytes32",
          "name": "role",
          "type": "bytes32"
        }
      ],
      "name": "getRoleAdmin",
      "outputs": [
        {
          "internalType": "bytes32",
          "name": "",
          "type": "bytes32"
        }
      ],
      "stateMutability": "view",
      "type": "function"
    },
    {
      "inputs": [
        {
          "internalType": "bytes32",
          "name": "role",
          "type": "bytes32"
        },
        {
          "internalType": "address",
          "name": "account",
          "type": "address"
        }
      ],
      "name": "grantRole",
      "outputs": [],
      "stateMutability": "nonpayable",
      "type": "function"
    },
    {
      "inputs": [
        {
          "internalType": "bytes32",
          "name": "role",
          "type": "bytes32"
        },
        {
          "internalType": "address",
          "name": "account",
          "type": "address"
        }
      ],
      "name": "hasRole",
      "outputs": [
        {
          "internalType": "bool",
          "name": "",
          "type": "bool"
        }
      ],
      "stateMutability": "view",
      "type": "function"
    },
    {
      "inputs": [
        {
          "internalType": "uint256",
          "name": "_lotteryId",
          "type": "uint256"
        }
      ],
      "name": "pickWinner",
      "outputs": [],
      "stateMutability": "nonpayable",
      "type": "function"
    },
    {
      "inputs": [
        {
          "internalType": "uint256",
          "name": "requestId",
          "type": "uint256"
        },
        {
          "internalType": "uint256[]",
          "name": "randomWords",
          "type": "uint256[]"
        }
      ],
      "name": "rawFulfillRandomWords",
      "outputs": [],
      "stateMutability": "nonpayable",
      "type": "function"
    },
    {
      "inputs": [
        {
          "internalType": "bytes32",
          "name": "role",
          "type": "bytes32"
        },
        {
          "internalType": "address",
          "name": "account",
          "type": "address"
        }
      ],
      "name": "renounceRole",
      "outputs": [],
      "stateMutability": "nonpayable",
      "type": "function"
    },
    {
      "inputs": [
        {
          "internalType": "address",
          "name": "_revokeLotteryOwner",
          "type": "address"
        }
      ],
      "name": "revokeLotteryOwner",
      "outputs": [],
      "stateMutability": "nonpayable",
      "type": "function"
    },
    {
      "inputs": [
        {
          "internalType": "address",
          "name": "_revokeRaffleOwner",
          "type": "address"
        }
      ],
      "name": "revokeRaffleOwner",
      "outputs": [],
      "stateMutability": "nonpayable",
      "type": "function"
    },
    {
      "inputs": [
        {
          "internalType": "bytes32",
          "name": "role",
          "type": "bytes32"
        },
        {
          "internalType": "address",
          "name": "account",
          "type": "address"
        }
      ],
      "name": "revokeRole",
      "outputs": [],
      "stateMutability": "nonpayable",
      "type": "function"
    },
    {
      "inputs": [],
      "name": "s_requestId",
      "outputs": [
        {
          "internalType": "uint256",
          "name": "",
          "type": "uint256"
        }
      ],
      "stateMutability": "view",
      "type": "function"
    },
    {
      "inputs": [
        {
          "internalType": "address",
          "name": "_newLotteryOwner",
          "type": "address"
        }
      ],
      "name": "setLotteryOwner",
      "outputs": [],
      "stateMutability": "nonpayable",
      "type": "function"
    },
    {
      "inputs": [
        {
          "internalType": "address",
          "name": "_newRaffleOwner",
          "type": "address"
        }
      ],
      "name": "setRaffleOwner",
      "outputs": [],
      "stateMutability": "nonpayable",
      "type": "function"
    },
    {
      "inputs": [
        {
          "internalType": "uint256",
          "name": "_lotteryTicketPrice",
          "type": "uint256"
        }
      ],
      "name": "startLottery",
      "outputs": [],
      "stateMutability": "payable",
      "type": "function"
    },
    {
      "inputs": [
        {
          "internalType": "bytes4",
          "name": "interfaceId",
          "type": "bytes4"
        }
      ],
      "name": "supportsInterface",
      "outputs": [
        {
          "internalType": "bool",
          "name": "",
          "type": "bool"
        }
      ],
      "stateMutability": "view",
      "type": "function"
    }
  ],
  "transactionHash": "0xd8d94aee9984ccb45fb7d39d8f650778a9031e1fb47d8c2d7a8fbc7e916ecf90",
  "args": [
    "0x7c3699283bda56ad74f6b855546325b68d482e983852a7a82979cc4807b641f3",
    "1",
    "0xe7f1725E7734CE288F8367e1Bb143E90bb3F0512",
    "0x5FbDB2315678afecb367f032d93F642f64180aa3",
    "0x5FC8d32690cc91D4c39d9d3abcBD16989F875707"
  ],
  "numDeployments": 1,
  "solcInputHash": "b2f77086c4da154e2d2b775615d8b7fc",
  "bytecode": "0x610100604052600361ffff1660c09061ffff1660f01b815250620186a063ffffffff1660e09063ffffffff1660e01b8152503480156200003e57600080fd5b506040516200344e3803806200344e8339818101604052810190620000649190620003df565b828073ffffffffffffffffffffffffffffffffffffffff1660808173ffffffffffffffffffffffffffffffffffffffff1660601b8152505050620000b460046200022160201b620014d51760201c565b620000c96000801b336200023760201b60201c565b620000fb7faba526aa14aa019b3e9fc425fcea908c5483c11b6e4c89de392165936eeef19d336200023760201b60201c565b6200012d7f9da416cc6ebbbfd2882d16e0e182d3973d28c8cb8c4dda745ee5d41218892f4d336200023760201b60201c565b82600160006101000a81548173ffffffffffffffffffffffffffffffffffffffff021916908373ffffffffffffffffffffffffffffffffffffffff16021790555081600260006101000a81548173ffffffffffffffffffffffffffffffffffffffff021916908373ffffffffffffffffffffffffffffffffffffffff1602179055508367ffffffffffffffff1660a08167ffffffffffffffff1660c01b815250508460068190555080600360006101000a81548173ffffffffffffffffffffffffffffffffffffffff021916908373ffffffffffffffffffffffffffffffffffffffff16021790555050505050506200050c565b6001816000016000828254019250508190555050565b6200024982826200032860201b60201c565b6200032457600160008084815260200190815260200160002060000160008373ffffffffffffffffffffffffffffffffffffffff1673ffffffffffffffffffffffffffffffffffffffff16815260200190815260200160002060006101000a81548160ff021916908315150217905550620002c96200039260201b60201c565b73ffffffffffffffffffffffffffffffffffffffff168173ffffffffffffffffffffffffffffffffffffffff16837f2f8788117e7eff1d82e926ec794901d17c78024a50270940304540a733656f0d60405160405180910390a45b5050565b600080600084815260200190815260200160002060000160008373ffffffffffffffffffffffffffffffffffffffff1673ffffffffffffffffffffffffffffffffffffffff16815260200190815260200160002060009054906101000a900460ff16905092915050565b600033905090565b600081519050620003ab81620004be565b92915050565b600081519050620003c281620004d8565b92915050565b600081519050620003d981620004f2565b92915050565b600080600080600060a08688031215620003fe57620003fd620004b9565b5b60006200040e88828901620003b1565b95505060206200042188828901620003c8565b945050604062000434888289016200039a565b935050606062000447888289016200039a565b92505060806200045a888289016200039a565b9150509295509295909350565b6000620004748262000485565b9050919050565b6000819050919050565b600073ffffffffffffffffffffffffffffffffffffffff82169050919050565b600067ffffffffffffffff82169050919050565b600080fd5b620004c98162000467565b8114620004d557600080fd5b50565b620004e3816200047b565b8114620004ef57600080fd5b50565b620004fd81620004a5565b81146200050957600080fd5b50565b60805160601c60a05160c01c60c05160f01c60e05160e01c612ef56200055960003960006113a60152600061138501526000611364015260008181610839015261088d0152612ef56000f3fe6080604052600436106101095760003560e01c806391d1485411610095578063d33f19cb11610064578063d33f19cb14610363578063d547741f1461038c578063e89e106a146103b5578063f737d21d146103e0578063f7b4649e1461040957610109565b806391d14854146102b6578063a217fddf146102f3578063ade328771461031e578063c6bec93a1461034757610109565b80632f2ff15d116100dc5780632f2ff15d146101cd57806336568abe146101f65780633677bc071461021f5780635fbd3f3d146102625780636cc699971461028b57610109565b806301ffc9a71461010e5780631b7052b21461014b5780631fe543e314610167578063248a9ca314610190575b600080fd5b34801561011a57600080fd5b50610135600480360381019061013091906121bd565b610432565b604051610142919061269a565b60405180910390f35b610165600480360381019061016091906122a0565b6104ac565b005b34801561017357600080fd5b5061018e60048036038101906101899190612244565b610837565b005b34801561019c57600080fd5b506101b760048036038101906101b29190612150565b6108f7565b6040516101c491906126b5565b60405180910390f35b3480156101d957600080fd5b506101f460048036038101906101ef919061217d565b610916565b005b34801561020257600080fd5b5061021d6004803603810190610218919061217d565b610937565b005b34801561022b57600080fd5b50610246600480360381019061024191906121ea565b6109ba565b6040516102599796959493929190612602565b60405180910390f35b34801561026e57600080fd5b5061028960048036038101906102849190611f79565b610a8e565b005b34801561029757600080fd5b506102a0610af4565b6040516102ad9190612678565b60405180910390f35b3480156102c257600080fd5b506102dd60048036038101906102d8919061217d565b610ba0565b6040516102ea919061269a565b60405180910390f35b3480156102ff57600080fd5b50610308610c0a565b60405161031591906126b5565b60405180910390f35b34801561032a57600080fd5b5061034560048036038101906103409190611f79565b610c11565b005b610361600480360381019061035c91906121ea565b610c77565b005b34801561036f57600080fd5b5061038a60048036038101906103859190611f79565b610e16565b005b34801561039857600080fd5b506103b360048036038101906103ae919061217d565b610e51565b005b3480156103c157600080fd5b506103ca610e72565b6040516103d791906127bc565b60405180910390f35b3480156103ec57600080fd5b50610407600480360381019061040291906121ea565b610e78565b005b34801561041557600080fd5b50610430600480360381019061042b9190611f79565b61149a565b005b60007f7965db0b000000000000000000000000000000000000000000000000000000007bffffffffffffffffffffffffffffffffffffffffffffffffffffffff1916827bffffffffffffffffffffffffffffffffffffffffffffffffffffffff191614806104a557506104a4826114eb565b5b9050919050565b6000806000806000806000600360009054906101000a900473ffffffffffffffffffffffffffffffffffffffff1673ffffffffffffffffffffffffffffffffffffffff166392e845f68a6040518263ffffffff1660e01b815260040161051291906127bc565b60006040518083038186803b15801561052a57600080fd5b505afa15801561053e573d6000803e3d6000fd5b505050506040513d6000823e3d601f19601f820116820180604052508101906105679190611fd3565b965096509650965096509650965080156105ad576040517fc89f1e0800000000000000000000000000000000000000000000000000000000815260040160405180910390fd5b87600360009054906101000a900473ffffffffffffffffffffffffffffffffffffffff1673ffffffffffffffffffffffffffffffffffffffff16638a0ab2136040518163ffffffff1660e01b815260040160206040518083038186803b15801561061657600080fd5b505afa15801561062a573d6000803e3d6000fd5b505050506040513d601f19601f8201168201806040525081019061064e9190612217565b6106589190612a68565b341015610691576040517f3c1d3de600000000000000000000000000000000000000000000000000000000815260040160405180910390fd5b60005b8881101561082b576000600360009054906101000a900473ffffffffffffffffffffffffffffffffffffffff1673ffffffffffffffffffffffffffffffffffffffff16638a0ab2136040518163ffffffff1660e01b815260040160206040518083038186803b15801561070657600080fd5b505afa15801561071a573d6000803e3d6000fd5b505050506040513d601f19601f8201168201806040525081019061073e9190612217565b8661074991906129e1565b9050600360009054906101000a900473ffffffffffffffffffffffffffffffffffffffff1673ffffffffffffffffffffffffffffffffffffffff1663ef037c338c83336040518463ffffffff1660e01b81526004016107aa93929190612889565b600060405180830381600087803b1580156107c457600080fd5b505af11580156107d8573d6000803e3d6000fd5b505050507f5dac43247c7247837bb97f4140d16d266918ddaa501aa7780cb7f1a9009a72c68b338360405161080f93929190612800565b60405180910390a150808061082390612c24565b915050610694565b50505050505050505050565b7f000000000000000000000000000000000000000000000000000000000000000073ffffffffffffffffffffffffffffffffffffffff163373ffffffffffffffffffffffffffffffffffffffff16146108e957337f00000000000000000000000000000000000000000000000000000000000000006040517f1cf993f40000000000000000000000000000000000000000000000000000000081526004016108e09291906125d9565b60405180910390fd5b6108f38282611555565b5050565b6000806000838152602001908152602001600020600101549050919050565b61091f826108f7565b61092881611832565b6109328383611846565b505050565b61093f611926565b73ffffffffffffffffffffffffffffffffffffffff168173ffffffffffffffffffffffffffffffffffffffff16146109ac576040517f08c379a00000000000000000000000000000000000000000000000000000000081526004016109a39061279c565b60405180910390fd5b6109b6828261192e565b5050565b6000806000806060600080600360009054906101000a900473ffffffffffffffffffffffffffffffffffffffff1673ffffffffffffffffffffffffffffffffffffffff166392e845f6896040518263ffffffff1660e01b8152600401610a2091906127bc565b60006040518083038186803b158015610a3857600080fd5b505afa158015610a4c573d6000803e3d6000fd5b505050506040513d6000823e3d601f19601f82011682018060405250810190610a759190611fd3565b9650965096509650965096509650919395979092949650565b7faba526aa14aa019b3e9fc425fcea908c5483c11b6e4c89de392165936eeef19d610ab881611832565b6000801b610ac581611832565b610aef7f9da416cc6ebbbfd2882d16e0e182d3973d28c8cb8c4dda745ee5d41218892f4d84611846565b505050565b6060600360009054906101000a900473ffffffffffffffffffffffffffffffffffffffff1673ffffffffffffffffffffffffffffffffffffffff16636cc699976040518163ffffffff1660e01b815260040160006040518083038186803b158015610b5e57600080fd5b505afa158015610b72573d6000803e3d6000fd5b505050506040513d6000823e3d601f19601f82011682018060405250810190610b9b91906120da565b905090565b600080600084815260200190815260200160002060000160008373ffffffffffffffffffffffffffffffffffffffff1673ffffffffffffffffffffffffffffffffffffffff16815260200190815260200160002060009054906101000a900460ff16905092915050565b6000801b81565b7faba526aa14aa019b3e9fc425fcea908c5483c11b6e4c89de392165936eeef19d610c3b81611832565b6000801b610c4881611832565b610c727f9da416cc6ebbbfd2882d16e0e182d3973d28c8cb8c4dda745ee5d41218892f4d8461192e565b505050565b7f9da416cc6ebbbfd2882d16e0e182d3973d28c8cb8c4dda745ee5d41218892f4d610ca181611832565b600360009054906101000a900473ffffffffffffffffffffffffffffffffffffffff1673ffffffffffffffffffffffffffffffffffffffff1663ca0575b7610ce96004611a0f565b336040518363ffffffff1660e01b8152600401610d079291906127d7565b600060405180830381600087803b158015610d2157600080fd5b505af1158015610d35573d6000803e3d6000fd5b50505050610d4360046114d5565b600360009054906101000a900473ffffffffffffffffffffffffffffffffffffffff1673ffffffffffffffffffffffffffffffffffffffff1663a0ede5a4836040518263ffffffff1660e01b8152600401610d9e91906127bc565b600060405180830381600087803b158015610db857600080fd5b505af1158015610dcc573d6000803e3d6000fd5b505050507f73ac9939c0fae9d35f1ff5450b52cb43bf0601ae6cc29f9d7eb5967b91e75059610dfb6004611a0f565b33604051610e0a9291906127d7565b60405180910390a15050565b6000801b610e2381611832565b610e4d7f9da416cc6ebbbfd2882d16e0e182d3973d28c8cb8c4dda745ee5d41218892f4d83611846565b5050565b610e5a826108f7565b610e6381611832565b610e6d838361192e565b505050565b60075481565b7f9da416cc6ebbbfd2882d16e0e182d3973d28c8cb8c4dda745ee5d41218892f4d610ea281611832565b600360009054906101000a900473ffffffffffffffffffffffffffffffffffffffff1673ffffffffffffffffffffffffffffffffffffffff1663cc251829836040518263ffffffff1660e01b8152600401610efd91906127bc565b60206040518083038186803b158015610f1557600080fd5b505afa158015610f29573d6000803e3d6000fd5b505050506040513d601f19601f82011682018060405250810190610f4d9190612123565b15610f84576040517f586abc5a00000000000000000000000000000000000000000000000000000000815260040160405180910390fd5b3373ffffffffffffffffffffffffffffffffffffffff16600360009054906101000a900473ffffffffffffffffffffffffffffffffffffffff1673ffffffffffffffffffffffffffffffffffffffff1663a87cc7c7846040518263ffffffff1660e01b8152600401610ff691906127bc565b60206040518083038186803b15801561100e57600080fd5b505afa158015611022573d6000803e3d6000fd5b505050506040513d601f19601f820116820180604052508101906110469190611fa6565b73ffffffffffffffffffffffffffffffffffffffff1614611093576040517fb7f74a8800000000000000000000000000000000000000000000000000000000815260040160405180910390fd5b6000600360009054906101000a900473ffffffffffffffffffffffffffffffffffffffff1673ffffffffffffffffffffffffffffffffffffffff1663a646daf6846040518263ffffffff1660e01b81526004016110f091906127bc565b60006040518083038186803b15801561110857600080fd5b505afa15801561111c573d6000803e3d6000fd5b505050506040513d6000823e3d601f19601f820116820180604052508101906111459190612091565b905060018151141561132157600073ffffffffffffffffffffffffffffffffffffffff168160008151811061117d5761117c612cfc565b5b602002602001015173ffffffffffffffffffffffffffffffffffffffff1614156111d3576040517f6abe6f6b00000000000000000000000000000000000000000000000000000000815260040160405180910390fd5b600360009054906101000a900473ffffffffffffffffffffffffffffffffffffffff1673ffffffffffffffffffffffffffffffffffffffff1663a5676fd88460006040518363ffffffff1660e01b8152600401611231929190612837565b600060405180830381600087803b15801561124b57600080fd5b505af115801561125f573d6000803e3d6000fd5b505050508060008151811061127757611276612cfc565b5b602002602001015173ffffffffffffffffffffffffffffffffffffffff166108fc479081150290604051600060405180830381858888f193505050501580156112c4573d6000803e3d6000fd5b507f8981fdd74bd05da9ef8f2aeb472f541ee871b1e9e3908c19d01a9bf51ce5f7ab600084836000815181106112fd576112fc612cfc565b5b602002602001015160405161131493929190612723565b60405180910390a1611495565b600160009054906101000a900473ffffffffffffffffffffffffffffffffffffffff1673ffffffffffffffffffffffffffffffffffffffff16635d3b1d306006547f00000000000000000000000000000000000000000000000000000000000000007f00000000000000000000000000000000000000000000000000000000000000007f000000000000000000000000000000000000000000000000000000000000000060016040518663ffffffff1660e01b81526004016113e79594939291906126d0565b602060405180830381600087803b15801561140157600080fd5b505af1158015611415573d6000803e3d6000fd5b505050506040513d601f19601f820116820180604052508101906114399190612217565b60078190555082600560006007548152602001908152602001600020819055507f3d94fecedaa4f90b8bd459797adb95f5bb11426025c5541390d9ccc1ad1b60a16007548460405161148c929190612860565b60405180910390a15b505050565b6000801b6114a781611832565b6114d17f9da416cc6ebbbfd2882d16e0e182d3973d28c8cb8c4dda745ee5d41218892f4d8361192e565b5050565b6001816000016000828254019250508190555050565b60007f01ffc9a7000000000000000000000000000000000000000000000000000000007bffffffffffffffffffffffffffffffffffffffffffffffffffffffff1916827bffffffffffffffffffffffffffffffffffffffffffffffffffffffff1916149050919050565b6000600560008481526020019081526020016000205490506000600360009054906101000a900473ffffffffffffffffffffffffffffffffffffffff1673ffffffffffffffffffffffffffffffffffffffff1663a646daf6836040518263ffffffff1660e01b81526004016115ca91906127bc565b60006040518083038186803b1580156115e257600080fd5b505afa1580156115f6573d6000803e3d6000fd5b505050506040513d6000823e3d601f19601f8201168201806040525081019061161f9190612091565b9050600061165282518560008151811061163c5761163b612cfc565b5b6020026020010151611a1d90919063ffffffff16565b9050600360009054906101000a900473ffffffffffffffffffffffffffffffffffffffff1673ffffffffffffffffffffffffffffffffffffffff1663a5676fd884836040518363ffffffff1660e01b81526004016116b1929190612860565b600060405180830381600087803b1580156116cb57600080fd5b505af11580156116df573d6000803e3d6000fd5b5050505060056000868152602001908152602001600020600090556000606460504761170b9190612a68565b6117159190612a37565b9050600083838151811061172c5761172b612cfc565b5b602002602001015173ffffffffffffffffffffffffffffffffffffffff16826040516117579061258a565b60006040518083038185875af1925050503d8060008114611794576040519150601f19603f3d011682016040523d82523d6000602084013e611799565b606091505b50509050806117d4576040517fa1d04b3900000000000000000000000000000000000000000000000000000000815260040160405180910390fd5b7f8981fdd74bd05da9ef8f2aeb472f541ee871b1e9e3908c19d01a9bf51ce5f7ab878686868151811061180a57611809612cfc565b5b602002602001015160405161182193929190612889565b60405180910390a150505050505050565b6118438161183e611926565b611a33565b50565b6118508282610ba0565b61192257600160008084815260200190815260200160002060000160008373ffffffffffffffffffffffffffffffffffffffff1673ffffffffffffffffffffffffffffffffffffffff16815260200190815260200160002060006101000a81548160ff0219169083151502179055506118c7611926565b73ffffffffffffffffffffffffffffffffffffffff168173ffffffffffffffffffffffffffffffffffffffff16837f2f8788117e7eff1d82e926ec794901d17c78024a50270940304540a733656f0d60405160405180910390a45b5050565b600033905090565b6119388282610ba0565b15611a0b57600080600084815260200190815260200160002060000160008373ffffffffffffffffffffffffffffffffffffffff1673ffffffffffffffffffffffffffffffffffffffff16815260200190815260200160002060006101000a81548160ff0219169083151502179055506119b0611926565b73ffffffffffffffffffffffffffffffffffffffff168173ffffffffffffffffffffffffffffffffffffffff16837ff6391f5c32d9c69d2a47ea670b442974b53935d1edc7fd64eb21e047a839171b60405160405180910390a45b5050565b600081600001549050919050565b60008183611a2b9190612c6d565b905092915050565b611a3d8282610ba0565b611acc57611a628173ffffffffffffffffffffffffffffffffffffffff166014611ad0565b611a708360001c6020611ad0565b604051602001611a8192919061259f565b6040516020818303038152906040526040517f08c379a0000000000000000000000000000000000000000000000000000000008152600401611ac3919061275a565b60405180910390fd5b5050565b606060006002836002611ae39190612a68565b611aed91906129e1565b67ffffffffffffffff811115611b0657611b05612d2b565b5b6040519080825280601f01601f191660200182016040528015611b385781602001600182028036833780820191505090505b5090507f300000000000000000000000000000000000000000000000000000000000000081600081518110611b7057611b6f612cfc565b5b60200101907effffffffffffffffffffffffffffffffffffffffffffffffffffffffffffff1916908160001a9053507f780000000000000000000000000000000000000000000000000000000000000081600181518110611bd457611bd3612cfc565b5b60200101907effffffffffffffffffffffffffffffffffffffffffffffffffffffffffffff1916908160001a90535060006001846002611c149190612a68565b611c1e91906129e1565b90505b6001811115611cbe577f3031323334353637383961626364656600000000000000000000000000000000600f861660108110611c6057611c5f612cfc565b5b1a60f81b828281518110611c7757611c76612cfc565b5b60200101907effffffffffffffffffffffffffffffffffffffffffffffffffffffffffffff1916908160001a905350600485901c945080611cb790612bc9565b9050611c21565b5060008414611d02576040517f08c379a0000000000000000000000000000000000000000000000000000000008152600401611cf99061277c565b60405180910390fd5b8091505092915050565b6000611d1f611d1a846128e5565b6128c0565b90508083825260208201905082856020860282011115611d4257611d41612d5f565b5b60005b85811015611d725781611d588882611e71565b845260208401935060208301925050600181019050611d45565b5050509392505050565b6000611d8f611d8a84612911565b6128c0565b90508083825260208201905082856020860282011115611db257611db1612d5f565b5b60005b85811015611de25781611dc88882611f4f565b845260208401935060208301925050600181019050611db5565b5050509392505050565b6000611dff611dfa84612911565b6128c0565b90508083825260208201905082856020860282011115611e2257611e21612d5f565b5b60005b85811015611e525781611e388882611f64565b845260208401935060208301925050600181019050611e25565b5050509392505050565b600081359050611e6b81612e4c565b92915050565b600081519050611e8081612e4c565b92915050565b600082601f830112611e9b57611e9a612d5a565b5b8151611eab848260208601611d0c565b91505092915050565b600082601f830112611ec957611ec8612d5a565b5b8135611ed9848260208601611d7c565b91505092915050565b600082601f830112611ef757611ef6612d5a565b5b8151611f07848260208601611dec565b91505092915050565b600081519050611f1f81612e63565b92915050565b600081359050611f3481612e7a565b92915050565b600081359050611f4981612e91565b92915050565b600081359050611f5e81612ea8565b92915050565b600081519050611f7381612ea8565b92915050565b600060208284031215611f8f57611f8e612d69565b5b6000611f9d84828501611e5c565b91505092915050565b600060208284031215611fbc57611fbb612d69565b5b6000611fca84828501611e71565b91505092915050565b600080600080600080600060e0888a031215611ff257611ff1612d69565b5b60006120008a828b01611e71565b97505060206120118a828b01611f64565b96505060406120228a828b01611f64565b95505060606120338a828b01611f64565b945050608088015167ffffffffffffffff81111561205457612053612d64565b5b6120608a828b01611e86565b93505060a06120718a828b01611e71565b92505060c06120828a828b01611f10565b91505092959891949750929550565b6000602082840312156120a7576120a6612d69565b5b600082015167ffffffffffffffff8111156120c5576120c4612d64565b5b6120d184828501611e86565b91505092915050565b6000602082840312156120f0576120ef612d69565b5b600082015167ffffffffffffffff81111561210e5761210d612d64565b5b61211a84828501611ee2565b91505092915050565b60006020828403121561213957612138612d69565b5b600061214784828501611f10565b91505092915050565b60006020828403121561216657612165612d69565b5b600061217484828501611f25565b91505092915050565b6000806040838503121561219457612193612d69565b5b60006121a285828601611f25565b92505060206121b385828601611e5c565b9150509250929050565b6000602082840312156121d3576121d2612d69565b5b60006121e184828501611f3a565b91505092915050565b600060208284031215612200576121ff612d69565b5b600061220e84828501611f4f565b91505092915050565b60006020828403121561222d5761222c612d69565b5b600061223b84828501611f64565b91505092915050565b6000806040838503121561225b5761225a612d69565b5b600061226985828601611f4f565b925050602083013567ffffffffffffffff81111561228a57612289612d64565b5b61229685828601611eb4565b9150509250929050565b600080604083850312156122b7576122b6612d69565b5b60006122c585828601611f4f565b92505060206122d685828601611f4f565b9150509250929050565b60006122ec8383612310565b60208301905092915050565b6000612304838361254e565b60208301905092915050565b61231981612ac2565b82525050565b61232881612ac2565b82525050565b60006123398261295d565b6123438185612998565b935061234e8361293d565b8060005b8381101561237f57815161236688826122e0565b97506123718361297e565b925050600181019050612352565b5085935050505092915050565b600061239782612968565b6123a181856129a9565b93506123ac8361294d565b8060005b838110156123dd5781516123c488826122f8565b97506123cf8361298b565b9250506001810190506123b0565b5085935050505092915050565b6123f381612ad4565b82525050565b61240281612ae0565b82525050565b61241181612b72565b82525050565b61242081612b84565b82525050565b600061243182612973565b61243b81856129c5565b935061244b818560208601612b96565b61245481612d6e565b840191505092915050565b600061246a82612973565b61247481856129d6565b9350612484818560208601612b96565b80840191505092915050565b600061249d6020836129c5565b91506124a882612d7f565b602082019050919050565b60006124c06000836129ba565b91506124cb82612da8565b600082019050919050565b60006124e36017836129d6565b91506124ee82612dab565b601782019050919050565b60006125066011836129d6565b915061251182612dd4565b601182019050919050565b6000612529602f836129c5565b915061253482612dfd565b604082019050919050565b61254881612b16565b82525050565b61255781612b44565b82525050565b61256681612b44565b82525050565b61257581612b4e565b82525050565b61258481612b5e565b82525050565b6000612595826124b3565b9150819050919050565b60006125aa826124d6565b91506125b6828561245f565b91506125c1826124f9565b91506125cd828461245f565b91508190509392505050565b60006040820190506125ee600083018561231f565b6125fb602083018461231f565b9392505050565b600060e082019050612617600083018a61231f565b612624602083018961255d565b612631604083018861255d565b61263e606083018761255d565b8181036080830152612650818661232e565b905061265f60a083018561231f565b61266c60c08301846123ea565b98975050505050505050565b60006020820190508181036000830152612692818461238c565b905092915050565b60006020820190506126af60008301846123ea565b92915050565b60006020820190506126ca60008301846123f9565b92915050565b600060a0820190506126e560008301886123f9565b6126f2602083018761257b565b6126ff604083018661253f565b61270c606083018561256c565b6127196080830184612417565b9695505050505050565b60006060820190506127386000830186612408565b612745602083018561255d565b612752604083018461231f565b949350505050565b600060208201905081810360008301526127748184612426565b905092915050565b6000602082019050818103600083015261279581612490565b9050919050565b600060208201905081810360008301526127b58161251c565b9050919050565b60006020820190506127d1600083018461255d565b92915050565b60006040820190506127ec600083018561255d565b6127f9602083018461231f565b9392505050565b6000606082019050612815600083018661255d565b612822602083018561231f565b61282f604083018461255d565b949350505050565b600060408201905061284c600083018561255d565b6128596020830184612408565b9392505050565b6000604082019050612875600083018561255d565b612882602083018461255d565b9392505050565b600060608201905061289e600083018661255d565b6128ab602083018561255d565b6128b8604083018461231f565b949350505050565b60006128ca6128db565b90506128d68282612bf3565b919050565b6000604051905090565b600067ffffffffffffffff821115612900576128ff612d2b565b5b602082029050602081019050919050565b600067ffffffffffffffff82111561292c5761292b612d2b565b5b602082029050602081019050919050565b6000819050602082019050919050565b6000819050602082019050919050565b600081519050919050565b600081519050919050565b600081519050919050565b6000602082019050919050565b6000602082019050919050565b600082825260208201905092915050565b600082825260208201905092915050565b600081905092915050565b600082825260208201905092915050565b600081905092915050565b60006129ec82612b44565b91506129f783612b44565b9250827fffffffffffffffffffffffffffffffffffffffffffffffffffffffffffffffff03821115612a2c57612a2b612c9e565b5b828201905092915050565b6000612a4282612b44565b9150612a4d83612b44565b925082612a5d57612a5c612ccd565b5b828204905092915050565b6000612a7382612b44565b9150612a7e83612b44565b9250817fffffffffffffffffffffffffffffffffffffffffffffffffffffffffffffffff0483118215151615612ab757612ab6612c9e565b5b828202905092915050565b6000612acd82612b24565b9050919050565b60008115159050919050565b6000819050919050565b60007fffffffff0000000000000000000000000000000000000000000000000000000082169050919050565b600061ffff82169050919050565b600073ffffffffffffffffffffffffffffffffffffffff82169050919050565b6000819050919050565b600063ffffffff82169050919050565b600067ffffffffffffffff82169050919050565b6000612b7d82612b44565b9050919050565b6000612b8f82612b4e565b9050919050565b60005b83811015612bb4578082015181840152602081019050612b99565b83811115612bc3576000848401525b50505050565b6000612bd482612b44565b91506000821415612be857612be7612c9e565b5b600182039050919050565b612bfc82612d6e565b810181811067ffffffffffffffff82111715612c1b57612c1a612d2b565b5b80604052505050565b6000612c2f82612b44565b91507fffffffffffffffffffffffffffffffffffffffffffffffffffffffffffffffff821415612c6257612c61612c9e565b5b600182019050919050565b6000612c7882612b44565b9150612c8383612b44565b925082612c9357612c92612ccd565b5b828206905092915050565b7f4e487b7100000000000000000000000000000000000000000000000000000000600052601160045260246000fd5b7f4e487b7100000000000000000000000000000000000000000000000000000000600052601260045260246000fd5b7f4e487b7100000000000000000000000000000000000000000000000000000000600052603260045260246000fd5b7f4e487b7100000000000000000000000000000000000000000000000000000000600052604160045260246000fd5b600080fd5b600080fd5b600080fd5b600080fd5b6000601f19601f8301169050919050565b7f537472696e67733a20686578206c656e67746820696e73756666696369656e74600082015250565b50565b7f416363657373436f6e74726f6c3a206163636f756e7420000000000000000000600082015250565b7f206973206d697373696e6720726f6c6520000000000000000000000000000000600082015250565b7f416363657373436f6e74726f6c3a2063616e206f6e6c792072656e6f756e636560008201527f20726f6c657320666f722073656c660000000000000000000000000000000000602082015250565b612e5581612ac2565b8114612e6057600080fd5b50565b612e6c81612ad4565b8114612e7757600080fd5b50565b612e8381612ae0565b8114612e8e57600080fd5b50565b612e9a81612aea565b8114612ea557600080fd5b50565b612eb181612b44565b8114612ebc57600080fd5b5056fea2646970667358221220a4c975c8161b1c29da075637754ff6b9b0cd00885771644607c398fa521819f364736f6c63430008070033",
  "devdoc": {
    "kind": "dev",
    "methods": {
      "getRoleAdmin(bytes32)": {
        "details": "Returns the admin role that controls `role`. See {grantRole} and {revokeRole}. To change a role's admin, use {_setRoleAdmin}."
      },
      "grantRole(bytes32,address)": {
        "details": "Grants `role` to `account`. If `account` had not been already granted `role`, emits a {RoleGranted} event. Requirements: - the caller must have ``role``'s admin role."
      },
      "hasRole(bytes32,address)": {
        "details": "Returns `true` if `account` has been granted `role`."
      },
      "renounceRole(bytes32,address)": {
        "details": "Revokes `role` from the calling account. Roles are often managed via {grantRole} and {revokeRole}: this function's purpose is to provide a mechanism for accounts to lose their privileges if they are compromised (such as when a trusted device is misplaced). If the calling account had been revoked `role`, emits a {RoleRevoked} event. Requirements: - the caller must be `account`."
      },
      "revokeRole(bytes32,address)": {
        "details": "Revokes `role` from `account`. If `account` had been granted `role`, emits a {RoleRevoked} event. Requirements: - the caller must have ``role``'s admin role."
      },
      "supportsInterface(bytes4)": {
        "details": "See {IERC165-supportsInterface}."
      }
    },
    "version": 1
  },
  "userdoc": {
    "kind": "user",
    "methods": {},
    "version": 1
  },
  "storageLayout": {
    "storage": [
      {
        "astId": 266,
        "contract": "contracts/Lottery.sol:Lottery",
        "label": "_roles",
        "offset": 0,
        "slot": "0",
        "type": "t_mapping(t_bytes32,t_struct(RoleData)261_storage)"
      },
      {
        "astId": 1297,
        "contract": "contracts/Lottery.sol:Lottery",
        "label": "COORDINATOR",
        "offset": 0,
        "slot": "1",
        "type": "t_contract(VRFCoordinatorV2Interface)241"
      },
      {
        "astId": 1300,
        "contract": "contracts/Lottery.sol:Lottery",
        "label": "LINKTOKEN",
        "offset": 0,
        "slot": "2",
        "type": "t_contract(LinkTokenInterface)152"
      },
      {
        "astId": 1303,
        "contract": "contracts/Lottery.sol:Lottery",
        "label": "LOTTERY_DATA",
        "offset": 0,
        "slot": "3",
        "type": "t_contract(LotteryData)2280"
      },
      {
        "astId": 1323,
        "contract": "contracts/Lottery.sol:Lottery",
        "label": "lotteryId",
        "offset": 0,
        "slot": "4",
        "type": "t_struct(Counter)662_storage"
      },
      {
        "astId": 1327,
        "contract": "contracts/Lottery.sol:Lottery",
        "label": "lotteryRandomnessRequest",
        "offset": 0,
        "slot": "5",
        "type": "t_mapping(t_uint256,t_uint256)"
      },
      {
        "astId": 1329,
        "contract": "contracts/Lottery.sol:Lottery",
        "label": "keyHash",
        "offset": 0,
        "slot": "6",
        "type": "t_bytes32"
      },
      {
        "astId": 1339,
        "contract": "contracts/Lottery.sol:Lottery",
        "label": "s_requestId",
        "offset": 0,
        "slot": "7",
        "type": "t_uint256"
      }
    ],
    "types": {
      "t_address": {
        "encoding": "inplace",
        "label": "address",
        "numberOfBytes": "20"
      },
      "t_bool": {
        "encoding": "inplace",
        "label": "bool",
        "numberOfBytes": "1"
      },
      "t_bytes32": {
        "encoding": "inplace",
        "label": "bytes32",
        "numberOfBytes": "32"
      },
      "t_contract(LinkTokenInterface)152": {
        "encoding": "inplace",
        "label": "contract LinkTokenInterface",
        "numberOfBytes": "20"
      },
      "t_contract(LotteryData)2280": {
        "encoding": "inplace",
        "label": "contract LotteryData",
        "numberOfBytes": "20"
      },
      "t_contract(VRFCoordinatorV2Interface)241": {
        "encoding": "inplace",
        "label": "contract VRFCoordinatorV2Interface",
        "numberOfBytes": "20"
      },
      "t_mapping(t_address,t_bool)": {
        "encoding": "mapping",
        "key": "t_address",
        "label": "mapping(address => bool)",
        "numberOfBytes": "32",
        "value": "t_bool"
      },
      "t_mapping(t_bytes32,t_struct(RoleData)261_storage)": {
        "encoding": "mapping",
        "key": "t_bytes32",
        "label": "mapping(bytes32 => struct AccessControl.RoleData)",
        "numberOfBytes": "32",
        "value": "t_struct(RoleData)261_storage"
      },
      "t_mapping(t_uint256,t_uint256)": {
        "encoding": "mapping",
        "key": "t_uint256",
        "label": "mapping(uint256 => uint256)",
        "numberOfBytes": "32",
        "value": "t_uint256"
      },
      "t_struct(Counter)662_storage": {
        "encoding": "inplace",
        "label": "struct Counters.Counter",
        "members": [
          {
            "astId": 661,
            "contract": "contracts/Lottery.sol:Lottery",
            "label": "_value",
            "offset": 0,
            "slot": "0",
            "type": "t_uint256"
          }
        ],
        "numberOfBytes": "32"
      },
      "t_struct(RoleData)261_storage": {
        "encoding": "inplace",
        "label": "struct AccessControl.RoleData",
        "members": [
          {
            "astId": 258,
            "contract": "contracts/Lottery.sol:Lottery",
            "label": "members",
            "offset": 0,
            "slot": "0",
            "type": "t_mapping(t_address,t_bool)"
          },
          {
            "astId": 260,
            "contract": "contracts/Lottery.sol:Lottery",
            "label": "adminRole",
            "offset": 0,
            "slot": "1",
            "type": "t_bytes32"
          }
        ],
        "numberOfBytes": "64"
      },
      "t_uint256": {
        "encoding": "inplace",
        "label": "uint256",
        "numberOfBytes": "32"
      }
    }
  }
}