{
  "address": "0x5FC8d32690cc91D4c39d9d3abcBD16989F875707",
  "abi": [
    {
      "inputs": [],
      "stateMutability": "nonpayable",
      "type": "constructor"
    },
    {
      "inputs": [],
      "name": "actionNotAllowed",
      "type": "error"
    },
    {
      "inputs": [],
      "name": "lotteryNotFound",
      "type": "error"
    },
    {
      "inputs": [],
      "name": "onlyLotteryManagerAllowed",
      "type": "error"
    },
    {
      "inputs": [
        {
          "internalType": "uint256",
          "name": "_lotteryId",
          "type": "uint256"
        },
        {
          "internalType": "address",
          "name": "_owner",
          "type": "address"
        }
      ],
      "name": "addLotteryData",
      "outputs": [],
      "stateMutability": "nonpayable",
      "type": "function"
    },
    {
      "inputs": [
        {
          "internalType": "uint256",
          "name": "_lotteryId",
          "type": "uint256"
        },
        {
          "internalType": "uint256",
          "name": "_updatedPricePool",
          "type": "uint256"
        },
        {
          "internalType": "address",
          "name": "_player",
          "type": "address"
        }
      ],
      "name": "addPlayerToLottery",
      "outputs": [],
      "stateMutability": "nonpayable",
      "type": "function"
    },
    {
      "inputs": [
        {
          "internalType": "uint256",
          "name": "",
          "type": "uint256"
        }
      ],
      "name": "allLotteries",
      "outputs": [
        {
          "internalType": "uint256",
          "name": "",
          "type": "uint256"
        }
      ],
      "stateMutability": "view",
      "type": "function"
    },
    {
      "inputs": [],
      "name": "getAllLotteryIds",
      "outputs": [
        {
          "internalType": "uint256[]",
          "name": "",
          "type": "uint256[]"
        }
      ],
      "stateMutability": "view",
      "type": "function"
    },
    {
      "inputs": [
        {
          "internalType": "uint256",
          "name": "_lotteryId",
          "type": "uint256"
        }
      ],
      "name": "getLottery",
      "outputs": [
        {
          "internalType": "address",
          "name": "",
          "type": "address"
        },
        {
          "internalType": "uint256",
          "name": "",
          "type": "uint256"
        },
        {
          "internalType": "uint256",
          "name": "",
          "type": "uint256"
        },
        {
          "internalType": "uint256",
          "name": "",
          "type": "uint256"
        },
        {
          "internalType": "address[]",
          "name": "",
          "type": "address[]"
        },
        {
          "internalType": "address",
          "name": "",
          "type": "address"
        },
        {
          "internalType": "bool",
          "name": "",
          "type": "bool"
        }
      ],
      "stateMutability": "view",
      "type": "function"
    },
    {
      "inputs": [
        {
          "internalType": "uint256",
          "name": "_lotteryId",
          "type": "uint256"
        }
      ],
      "name": "getLotteryOwner",
      "outputs": [
        {
          "internalType": "address",
          "name": "",
          "type": "address"
        }
      ],
      "stateMutability": "view",
      "type": "function"
    },
    {
      "inputs": [
        {
          "internalType": "uint256",
          "name": "_lotteryId",
          "type": "uint256"
        }
      ],
      "name": "getLotteryPlayerLength",
      "outputs": [
        {
          "internalType": "uint256",
          "name": "",
          "type": "uint256"
        }
      ],
      "stateMutability": "view",
      "type": "function"
    },
    {
      "inputs": [
        {
          "internalType": "uint256",
          "name": "_lotteryId",
          "type": "uint256"
        }
      ],
      "name": "getLotteryPlayers",
      "outputs": [
        {
          "internalType": "address[]",
          "name": "",
          "type": "address[]"
        }
      ],
      "stateMutability": "view",
      "type": "function"
    },
    {
      "inputs": [
        {
          "internalType": "uint256",
          "name": "_lotteryId",
          "type": "uint256"
        }
      ],
      "name": "isLotteryFinished",
      "outputs": [
        {
          "internalType": "bool",
          "name": "",
          "type": "bool"
        }
      ],
      "stateMutability": "view",
      "type": "function"
    },
    {
      "inputs": [
        {
          "internalType": "uint256",
          "name": "",
          "type": "uint256"
        }
      ],
      "name": "lotteries",
      "outputs": [
        {
          "internalType": "address",
          "name": "owner",
          "type": "address"
        },
        {
          "internalType": "uint256",
          "name": "lotteryId",
          "type": "uint256"
        },
        {
          "internalType": "uint256",
          "name": "ticketPrice",
          "type": "uint256"
        },
        {
          "internalType": "uint256",
          "name": "prizePool",
          "type": "uint256"
        },
        {
          "internalType": "address",
          "name": "winner",
          "type": "address"
        },
        {
          "internalType": "bool",
          "name": "isFinished",
          "type": "bool"
        }
      ],
      "stateMutability": "view",
      "type": "function"
    },
    {
      "inputs": [],
      "name": "lotteryTicketPrice",
      "outputs": [
        {
          "internalType": "uint256",
          "name": "",
          "type": "uint256"
        }
      ],
      "stateMutability": "view",
      "type": "function"
    },
    {
      "inputs": [
        {
          "internalType": "uint256",
          "name": "_ticketPrice",
          "type": "uint256"
        }
      ],
      "name": "setLotteryTicketPrice",
      "outputs": [],
      "stateMutability": "nonpayable",
      "type": "function"
    },
    {
      "inputs": [
        {
          "internalType": "uint256",
          "name": "_lotteryId",
          "type": "uint256"
        },
        {
          "internalType": "uint256",
          "name": "_winnerIndex",
          "type": "uint256"
        }
      ],
      "name": "setWinnerForLottery",
      "outputs": [],
      "stateMutability": "nonpayable",
      "type": "function"
    },
    {
      "inputs": [
        {
          "internalType": "address",
          "name": "_lotteryContract",
          "type": "address"
        }
      ],
      "name": "updateLotteryContract",
      "outputs": [],
      "stateMutability": "nonpayable",
      "type": "function"
    }
  ],
  "transactionHash": "0xa1564a16e1706363de53c181829a964efc08d1c8601b84bcb421194d80f35eee",
  "args": [],
  "numDeployments": 1,
  "solcInputHash": "b2f77086c4da154e2d2b775615d8b7fc",
  "bytecode": "0x608060405266470de4df82000060025534801561001b57600080fd5b5033600360006101000a81548173ffffffffffffffffffffffffffffffffffffffff021916908373ffffffffffffffffffffffffffffffffffffffff160217905550611ada8061006c6000396000f3fe608060405234801561001057600080fd5b50600436106100ea5760003560e01c8063a0ede5a41161008c578063a87cc7c711610066578063a87cc7c71461027a578063ca0575b7146102aa578063cc251829146102c6578063ef037c33146102f6576100ea565b8063a0ede5a414610212578063a5676fd81461022e578063a646daf61461024a576100ea565b806343531c61116100c857806343531c61146101705780636cc69997146101a05780638a0ab213146101be57806392e845f6146101dc576100ea565b80631398e076146100ef57806318610ae0146101245780633294ed9b14610140575b600080fd5b610109600480360381019061010491906115b6565b610312565b60405161011b96959493929190611808565b60405180910390f35b61013e60048036038101906101399190611589565b61039b565b005b61015a600480360381019061015591906115b6565b610481565b604051610167919061193e565b60405180910390f35b61018a600480360381019061018591906115b6565b610663565b604051610197919061193e565b60405180910390f35b6101a8610687565b6040516101b59190611901565b60405180910390f35b6101c66106df565b6040516101d3919061193e565b60405180910390f35b6101f660048036038101906101f191906115b6565b6106e5565b6040516102099796959493929190611869565b60405180910390f35b61022c600480360381019061022791906115b6565b610900565b005b61024860048036038101906102439190611623565b61090a565b005b610264600480360381019061025f91906115b6565b610ad1565b60405161027191906118df565b60405180910390f35b610294600480360381019061028f91906115b6565b610cb3565b6040516102a191906117ed565b60405180910390f35b6102c460048036038101906102bf91906115e3565b610e94565b005b6102e060048036038101906102db91906115b6565b611141565b6040516102ed9190611923565b60405180910390f35b610310600480360381019061030b9190611663565b611322565b005b60006020528060005260406000206000915090508060000160009054906101000a900473ffffffffffffffffffffffffffffffffffffffff16908060010154908060020154908060030154908060050160009054906101000a900473ffffffffffffffffffffffffffffffffffffffff16908060050160149054906101000a900460ff16905086565b600360009054906101000a900473ffffffffffffffffffffffffffffffffffffffff1673ffffffffffffffffffffffffffffffffffffffff163373ffffffffffffffffffffffffffffffffffffffff1614610422576040517f4150155300000000000000000000000000000000000000000000000000000000815260040160405180910390fd5b6001600360146101000a81548160ff02191690831515021790555080600460006101000a81548173ffffffffffffffffffffffffffffffffffffffff021916908373ffffffffffffffffffffffffffffffffffffffff16021790555050565b6000806000808481526020019081526020016000206040518060e00160405290816000820160009054906101000a900473ffffffffffffffffffffffffffffffffffffffff1673ffffffffffffffffffffffffffffffffffffffff1673ffffffffffffffffffffffffffffffffffffffff1681526020016001820154815260200160028201548152602001600382015481526020016004820180548060200260200160405190810160405280929190818152602001828054801561059a57602002820191906000526020600020905b8160009054906101000a900473ffffffffffffffffffffffffffffffffffffffff1673ffffffffffffffffffffffffffffffffffffffff1681526020019060010190808311610550575b505050505081526020016005820160009054906101000a900473ffffffffffffffffffffffffffffffffffffffff1673ffffffffffffffffffffffffffffffffffffffff1673ffffffffffffffffffffffffffffffffffffffff1681526020016005820160149054906101000a900460ff1615151515815250509050600081602001511415610655576040517f8f53da5700000000000000000000000000000000000000000000000000000000815260040160405180910390fd5b806080015151915050919050565b6001818154811061067357600080fd5b906000526020600020016000915090505481565b606060018054806020026020016040519081016040528092919081815260200182805480156106d557602002820191906000526020600020905b8154815260200190600101908083116106c1575b5050505050905090565b60025481565b600080600080606060008060008060008a81526020019081526020016000206040518060e00160405290816000820160009054906101000a900473ffffffffffffffffffffffffffffffffffffffff1673ffffffffffffffffffffffffffffffffffffffff1673ffffffffffffffffffffffffffffffffffffffff1681526020016001820154815260200160028201548152602001600382015481526020016004820180548060200260200160405190810160405280929190818152602001828054801561080857602002820191906000526020600020905b8160009054906101000a900473ffffffffffffffffffffffffffffffffffffffff1673ffffffffffffffffffffffffffffffffffffffff16815260200190600101908083116107be575b505050505081526020016005820160009054906101000a900473ffffffffffffffffffffffffffffffffffffffff1673ffffffffffffffffffffffffffffffffffffffff1673ffffffffffffffffffffffffffffffffffffffff1681526020016005820160149054906101000a900460ff16151515158152505090506000816020015114156108c3576040517f8f53da5700000000000000000000000000000000000000000000000000000000815260040160405180910390fd5b806000015181602001518260400151836060015184608001518560a001518660c00151975097509750975097509750975050919395979092949650565b8060028190555050565b600360149054906101000a900460ff16610950576040517f4fb7dea000000000000000000000000000000000000000000000000000000000815260040160405180910390fd5b600460009054906101000a900473ffffffffffffffffffffffffffffffffffffffff1673ffffffffffffffffffffffffffffffffffffffff163373ffffffffffffffffffffffffffffffffffffffff16146109d7576040517f4150155300000000000000000000000000000000000000000000000000000000815260040160405180910390fd5b60008060008481526020019081526020016000209050600081600101541415610a2c576040517f8f53da5700000000000000000000000000000000000000000000000000000000815260040160405180910390fd5b60018160050160146101000a81548160ff021916908315150217905550806004018281548110610a5f57610a5e611a13565b5b9060005260206000200160009054906101000a900473ffffffffffffffffffffffffffffffffffffffff168160050160006101000a81548173ffffffffffffffffffffffffffffffffffffffff021916908373ffffffffffffffffffffffffffffffffffffffff160217905550505050565b606060008060008481526020019081526020016000206040518060e00160405290816000820160009054906101000a900473ffffffffffffffffffffffffffffffffffffffff1673ffffffffffffffffffffffffffffffffffffffff1673ffffffffffffffffffffffffffffffffffffffff16815260200160018201548152602001600282015481526020016003820154815260200160048201805480602002602001604051908101604052809291908181526020018280548015610beb57602002820191906000526020600020905b8160009054906101000a900473ffffffffffffffffffffffffffffffffffffffff1673ffffffffffffffffffffffffffffffffffffffff1681526020019060010190808311610ba1575b505050505081526020016005820160009054906101000a900473ffffffffffffffffffffffffffffffffffffffff1673ffffffffffffffffffffffffffffffffffffffff1673ffffffffffffffffffffffffffffffffffffffff1681526020016005820160149054906101000a900460ff1615151515815250509050600081602001511415610ca6576040517f8f53da5700000000000000000000000000000000000000000000000000000000815260040160405180910390fd5b8060800151915050919050565b6000806000808481526020019081526020016000206040518060e00160405290816000820160009054906101000a900473ffffffffffffffffffffffffffffffffffffffff1673ffffffffffffffffffffffffffffffffffffffff1673ffffffffffffffffffffffffffffffffffffffff16815260200160018201548152602001600282015481526020016003820154815260200160048201805480602002602001604051908101604052809291908181526020018280548015610dcc57602002820191906000526020600020905b8160009054906101000a900473ffffffffffffffffffffffffffffffffffffffff1673ffffffffffffffffffffffffffffffffffffffff1681526020019060010190808311610d82575b505050505081526020016005820160009054906101000a900473ffffffffffffffffffffffffffffffffffffffff1673ffffffffffffffffffffffffffffffffffffffff1673ffffffffffffffffffffffffffffffffffffffff1681526020016005820160149054906101000a900460ff1615151515815250509050600081602001511415610e87576040517f8f53da5700000000000000000000000000000000000000000000000000000000815260040160405180910390fd5b8060000151915050919050565b600360149054906101000a900460ff16610eda576040517f4fb7dea000000000000000000000000000000000000000000000000000000000815260040160405180910390fd5b600460009054906101000a900473ffffffffffffffffffffffffffffffffffffffff1673ffffffffffffffffffffffffffffffffffffffff163373ffffffffffffffffffffffffffffffffffffffff1614610f61576040517f4150155300000000000000000000000000000000000000000000000000000000815260040160405180910390fd5b60006040518060e001604052808373ffffffffffffffffffffffffffffffffffffffff168152602001848152602001600254815260200160008152602001600067ffffffffffffffff811115610fba57610fb9611a42565b5b604051908082528060200260200182016040528015610fe85781602001602082028036833780820191505090505b508152602001600073ffffffffffffffffffffffffffffffffffffffff1681526020016000151581525090508060008085815260200190815260200160002060008201518160000160006101000a81548173ffffffffffffffffffffffffffffffffffffffff021916908373ffffffffffffffffffffffffffffffffffffffff16021790555060208201518160010155604082015181600201556060820151816003015560808201518160040190805190602001906110a89291906114b8565b5060a08201518160050160006101000a81548173ffffffffffffffffffffffffffffffffffffffff021916908373ffffffffffffffffffffffffffffffffffffffff16021790555060c08201518160050160146101000a81548160ff0219169083151502179055509050506001839080600181540180825580915050600190039060005260206000200160009091909190915055505050565b6000806000808481526020019081526020016000206040518060e00160405290816000820160009054906101000a900473ffffffffffffffffffffffffffffffffffffffff1673ffffffffffffffffffffffffffffffffffffffff1673ffffffffffffffffffffffffffffffffffffffff1681526020016001820154815260200160028201548152602001600382015481526020016004820180548060200260200160405190810160405280929190818152602001828054801561125a57602002820191906000526020600020905b8160009054906101000a900473ffffffffffffffffffffffffffffffffffffffff1673ffffffffffffffffffffffffffffffffffffffff1681526020019060010190808311611210575b505050505081526020016005820160009054906101000a900473ffffffffffffffffffffffffffffffffffffffff1673ffffffffffffffffffffffffffffffffffffffff1673ffffffffffffffffffffffffffffffffffffffff1681526020016005820160149054906101000a900460ff1615151515815250509050600081602001511415611315576040517f8f53da5700000000000000000000000000000000000000000000000000000000815260040160405180910390fd5b8060c00151915050919050565b600360149054906101000a900460ff16611368576040517f4fb7dea000000000000000000000000000000000000000000000000000000000815260040160405180910390fd5b600460009054906101000a900473ffffffffffffffffffffffffffffffffffffffff1673ffffffffffffffffffffffffffffffffffffffff163373ffffffffffffffffffffffffffffffffffffffff16146113ef576040517f4150155300000000000000000000000000000000000000000000000000000000815260040160405180910390fd5b60008060008581526020019081526020016000209050600081600101541415611444576040517f8f53da5700000000000000000000000000000000000000000000000000000000815260040160405180910390fd5b80600401829080600181540180825580915050600190039060005260206000200160009091909190916101000a81548173ffffffffffffffffffffffffffffffffffffffff021916908373ffffffffffffffffffffffffffffffffffffffff16021790555082816003018190555050505050565b828054828255906000526020600020908101928215611531579160200282015b828111156115305782518260006101000a81548173ffffffffffffffffffffffffffffffffffffffff021916908373ffffffffffffffffffffffffffffffffffffffff160217905550916020019190600101906114d8565b5b50905061153e9190611542565b5090565b5b8082111561155b576000816000905550600101611543565b5090565b60008135905061156e81611a76565b92915050565b60008135905061158381611a8d565b92915050565b60006020828403121561159f5761159e611a71565b5b60006115ad8482850161155f565b91505092915050565b6000602082840312156115cc576115cb611a71565b5b60006115da84828501611574565b91505092915050565b600080604083850312156115fa576115f9611a71565b5b600061160885828601611574565b92505060206116198582860161155f565b9150509250929050565b6000806040838503121561163a57611639611a71565b5b600061164885828601611574565b925050602061165985828601611574565b9150509250929050565b60008060006060848603121561167c5761167b611a71565b5b600061168a86828701611574565b935050602061169b86828701611574565b92505060406116ac8682870161155f565b9150509250925092565b60006116c283836116e6565b60208301905092915050565b60006116da83836117cf565b60208301905092915050565b6116ef816119cb565b82525050565b6116fe816119cb565b82525050565b600061170f82611979565b61171981856119a9565b935061172483611959565b8060005b8381101561175557815161173c88826116b6565b97506117478361198f565b925050600181019050611728565b5085935050505092915050565b600061176d82611984565b61177781856119ba565b935061178283611969565b8060005b838110156117b357815161179a88826116ce565b97506117a58361199c565b925050600181019050611786565b5085935050505092915050565b6117c9816119dd565b82525050565b6117d881611a09565b82525050565b6117e781611a09565b82525050565b600060208201905061180260008301846116f5565b92915050565b600060c08201905061181d60008301896116f5565b61182a60208301886117de565b61183760408301876117de565b61184460608301866117de565b61185160808301856116f5565b61185e60a08301846117c0565b979650505050505050565b600060e08201905061187e600083018a6116f5565b61188b60208301896117de565b61189860408301886117de565b6118a560608301876117de565b81810360808301526118b78186611704565b90506118c660a08301856116f5565b6118d360c08301846117c0565b98975050505050505050565b600060208201905081810360008301526118f98184611704565b905092915050565b6000602082019050818103600083015261191b8184611762565b905092915050565b600060208201905061193860008301846117c0565b92915050565b600060208201905061195360008301846117de565b92915050565b6000819050602082019050919050565b6000819050602082019050919050565b600081519050919050565b600081519050919050565b6000602082019050919050565b6000602082019050919050565b600082825260208201905092915050565b600082825260208201905092915050565b60006119d6826119e9565b9050919050565b60008115159050919050565b600073ffffffffffffffffffffffffffffffffffffffff82169050919050565b6000819050919050565b7f4e487b7100000000000000000000000000000000000000000000000000000000600052603260045260246000fd5b7f4e487b7100000000000000000000000000000000000000000000000000000000600052604160045260246000fd5b600080fd5b611a7f816119cb565b8114611a8a57600080fd5b50565b611a9681611a09565b8114611aa157600080fd5b5056fea264697066735822122028ed9ed1e3af27b8fccb48a228eddb5329f8c2de10481cbb3ee8be8f6cba426e64736f6c63430008070033",
  "devdoc": {
    "kind": "dev",
    "methods": {},
    "version": 1
  },
  "userdoc": {
    "kind": "user",
    "methods": {},
    "version": 1
  },
  "storageLayout": {
    "storage": [
      {
        "astId": 1899,
        "contract": "contracts/LotteryData.sol:LotteryData",
        "label": "lotteries",
        "offset": 0,
        "slot": "0",
        "type": "t_mapping(t_uint256,t_struct(LotteryInfo)1894_storage)"
      },
      {
        "astId": 1902,
        "contract": "contracts/LotteryData.sol:LotteryData",
        "label": "allLotteries",
        "offset": 0,
        "slot": "1",
        "type": "t_array(t_uint256)dyn_storage"
      },
      {
        "astId": 1905,
        "contract": "contracts/LotteryData.sol:LotteryData",
        "label": "lotteryTicketPrice",
        "offset": 0,
        "slot": "2",
        "type": "t_uint256"
      },
      {
        "astId": 1907,
        "contract": "contracts/LotteryData.sol:LotteryData",
        "label": "manager",
        "offset": 0,
        "slot": "3",
        "type": "t_address"
      },
      {
        "astId": 1909,
        "contract": "contracts/LotteryData.sol:LotteryData",
        "label": "isLotteryContractSet",
        "offset": 20,
        "slot": "3",
        "type": "t_bool"
      },
      {
        "astId": 1911,
        "contract": "contracts/LotteryData.sol:LotteryData",
        "label": "lotteryContract",
        "offset": 0,
        "slot": "4",
        "type": "t_address"
      }
    ],
    "types": {
      "t_address": {
        "encoding": "inplace",
        "label": "address",
        "numberOfBytes": "20"
      },
      "t_array(t_address)dyn_storage": {
        "base": "t_address",
        "encoding": "dynamic_array",
        "label": "address[]",
        "numberOfBytes": "32"
      },
      "t_array(t_uint256)dyn_storage": {
        "base": "t_uint256",
        "encoding": "dynamic_array",
        "label": "uint256[]",
        "numberOfBytes": "32"
      },
      "t_bool": {
        "encoding": "inplace",
        "label": "bool",
        "numberOfBytes": "1"
      },
      "t_mapping(t_uint256,t_struct(LotteryInfo)1894_storage)": {
        "encoding": "mapping",
        "key": "t_uint256",
        "label": "mapping(uint256 => struct LotteryData.LotteryInfo)",
        "numberOfBytes": "32",
        "value": "t_struct(LotteryInfo)1894_storage"
      },
      "t_struct(LotteryInfo)1894_storage": {
        "encoding": "inplace",
        "label": "struct LotteryData.LotteryInfo",
        "members": [
          {
            "astId": 1880,
            "contract": "contracts/LotteryData.sol:LotteryData",
            "label": "owner",
            "offset": 0,
            "slot": "0",
            "type": "t_address"
          },
          {
            "astId": 1882,
            "contract": "contracts/LotteryData.sol:LotteryData",
            "label": "lotteryId",
            "offset": 0,
            "slot": "1",
            "type": "t_uint256"
          },
          {
            "astId": 1884,
            "contract": "contracts/LotteryData.sol:LotteryData",
            "label": "ticketPrice",
            "offset": 0,
            "slot": "2",
            "type": "t_uint256"
          },
          {
            "astId": 1886,
            "contract": "contracts/LotteryData.sol:LotteryData",
            "label": "prizePool",
            "offset": 0,
            "slot": "3",
            "type": "t_uint256"
          },
          {
            "astId": 1889,
            "contract": "contracts/LotteryData.sol:LotteryData",
            "label": "players",
            "offset": 0,
            "slot": "4",
            "type": "t_array(t_address)dyn_storage"
          },
          {
            "astId": 1891,
            "contract": "contracts/LotteryData.sol:LotteryData",
            "label": "winner",
            "offset": 0,
            "slot": "5",
            "type": "t_address"
          },
          {
            "astId": 1893,
            "contract": "contracts/LotteryData.sol:LotteryData",
            "label": "isFinished",
            "offset": 20,
            "slot": "5",
            "type": "t_bool"
          }
        ],
        "numberOfBytes": "192"
      },
      "t_uint256": {
        "encoding": "inplace",
        "label": "uint256",
        "numberOfBytes": "32"
      }
    }
  }
}